:1000000000308A00D7280000FF00030E8301A10002
:100010000A08A0008A010408A2007708A300780853
:10002000A4007908A5007A08A600831383120B1E8A
:100030001B288B1832288C308400801E21288C1AB3
:100040003528220884002308F7002408F800250832
:10005000F9002608FA0020088A00210E8300FF0E0E
:100060007F0E09008A110A1254288A110A123828B0
:10007000A812280883168700831287128C128A110F
:100080000A122128780803194A2877088000840A70
:10009000F80B45280800293084008313F70140300D
:1000A000F8004220EB01080083160614831206189C
:1000B00057280830F7008316A101F7176F28F713A8
:1000C0006F2803108312061803148316A10C7717E8
:1000D0006F287713F70B61282108F8007B28503030
:1000E000F71B1530F800F80B73280000F71B5F288A
:1000F000771B6928612878088312E9006908033CA6
:10010000031D8F286B08073C031D8F2829306B07C0
:100110008400831369088000EB0A6A149F286B0827
:10012000073C031C9B2829306B0784008313690854
:100130008000EB0A9F286B08073C031C4B208B10A8
:100140008A110A12212874308400831300080319CD
:10015000B6280630F800F701F70BAC28F80BAB28EF
:100160007B30F700F70BB228800BA9288A110A12FE
:100170000829A812280883168700831287160C1EE8
:10018000BF28A812280883168700831287168316B3
:1001900020088312990000008316981CCD28831232
:1001A000A812280883168700831287120800030804
:1001B0001F398300FF30A800A81228088316870083
:1001C00083128712403083169900A6309800903031
:1001D0008312980083168610831286146A10EB012E
:1001E00083161F149F141F159F1107309C00831343
:1001F00083120B1683160113C03083128B04A812CE
:10020000280883168700831287121430F400A3286D
:100210006A1C5C290B138B138B1B0B292908EC0020
:100220002A08ED002B08EE002C08EF002D08F00046
:100230002E08F1002F08F2003008F3007008FB00D0
:10024000FC017208FD00FE016C088316A0008312F9
:10025000B9206D088316A0008312B9206E0883169A
:10026000A0008312B9206F088316A0008312B92062
:100270007B088316A0008312B92071088316A000A2
:100280008312B9207D088316A0008312B920730859
:100290008316A0008312B9206A10A81228088316BA
:1002A000870083128712A7018B1BA7178B134B2084
:0C02B000A71B8B17C0308B0408296300CB
:02400E00723FFF
:00000001FF
;PIC16F877A
;CRC=D071  CREATED="13-nov.-19 01:02"
